S01300005265616C54696D654441512E7372656328
S113000053C065C064C063C062C061C060C05FC0EB
S11300105EC05DC05CC05BC05AC059C058C057C008
S113002056C055C054C007634236B79BD8A71A3987
S1130030685618AEBAAB558C1D3CB7CC5763BD6D32
S1130040EDFD753EF6177231BF000000803F0800D9
S11300500000BE922449123EABAAAA2ABECDCCCC43
S11300604C3E00000080BEABAAAAAA3E00000000DD
S1130070BF000000803F0000000000084178D3BBAF
S11300804387D1133D190E3CC3BD4282AD2B3E685C
S1130090EC8276BED98FE1A93E4C80EFFFBE01C44D
S11300A0FF7F3F000000000011241FBECFE5D4E015
S11300B0DEBFCDBF10E0A0E6B0E0E4E1F9E102C0AC
S11300C005900D92A838B107D9F7F3D321CC98CF76
S11300D017B816B897B1692B606467B996B1892BC4
S11300E0806C86B9349BFECF24B185B190E0982F03
S11300F0882716B8822B0895FC01718360830895C4
S11301009F92AF92BF92CF92DF92EF92FF920F93A2
S11301101F93CF93DF93EC017B018A01888199813E
S1130120A2D260E788819981FFD26CEA88819981A3
S1130130FBD263E388819981F7D260E08881998159
S1130140F3D288819981A6D2888199818CD261E782
S113015088819981E9D269E988819981E5D2888188
S11301609981CAD28881998195D283EC99E00197CB
S1130170F1F700C000008881998175D261E7888118
S11301809981D2D269E988819981CED28881998175
S1130190B3D2888199817ED2E3ECF9E03197F1F70B
S11301A000C00000888199815ED261E788819981CD
S11301B0BBD269E988819981B7D2888199819CD21F
S11301C08881998167D283EC99E00197F1F700C0A7
S11301D000008881998147D261E788819981A4D2FE
S11301E069E988819981A0D28881998185D28881A1
S11301F0998150D2E3ECF9E03197F1F700C00000A7
S11302008881998130D261E7888199818DD269E9A9
S11302108881998189D2888199816ED288819981D6
S113022039D283EC99E00197F1F700C0000088818E
S1130230998119D261E78881998176D269E18881AF
S1130240998172D28881998125D2888199810BD232
S113025061E78881998168D288819981C3D2888134
S113026099812FD288819981BDD2D82E8881998194
S113027028D288819981B6D2C82E8881998121D2C9
S113028088819981AFD2B82E888199811AD28881C8
S11302909981A8D2982E8881998113D288819981D5
S11302A0A1D2A82E8881998127D288819981F2D1FF
S11302B06B2D6F70862F90E0A0E0B0E0BC01552755
S11302C04427892D90E0982F8827092E000CAA0B2B
S11302D0BB0B840F951FA61FB71FBC01CD016A0D70
S11302E0711D811D911DBFD52CE237E448E459E30B
S11302F048D620E030E048E452E4B7D4F701608304
S1130300718382839383B694B694B694B694F0E1E1
S1130310CF9EB00111246B0D711DAB01770F660BDD
S1130320770B8D2D90E0A0E0B0E0072E7CE0880FE5
S1130330991FAA1FBB1F7A95D1F7702D6A017B0103
S1130340C80ED91EEA1EFB1EC701B6018CD52DEBC3
S11303503AE347EC58E315D6F8016083718382834E
S11303609383DF91CF911F910F91FF90EF90DF90D6
S1130370CF90BF90AF909F900895FC0171836083EC
S1130380440F428308951F93CF93DF93EC01607F62
S1130390162F1860411111608881998164D16A8196
S11303A088819981C1D1612F646088819981BCD190
S11303B00000612F6B7F88819981B6D188819981F2
S11303C069D1DF91CF911F9108950F931F93CF931C
S11303D08C01C62F607F40E0D6DF80E1C89FB0016A
S11303E0112440E0C801CFDF83EF91E00197F1F7DA
S11303F000C00000CF911F910F9108950F931F9398
S1130400CF938C01C62F607F41E0BDDF80E1C89FA0
S1130410B001112441E0C801B6DF81E28A95F1F709
S11304200000CF911F910F910895CF93DF93EC01BA
S113043083ED90E30197F1F700C0000040E060E332
S1130440CE01A1DF81EE94E00197F1F700C0000036
S113045040E060E3CE0197DF81EE94E00197F1F78D
S113046000C0000040E060E2CE018DDF81EE94E048
S11304700197F1F700C0000068E2CE01A6DF6CE04E
S1130480CE01A3DF66E0CE01A0DF61E0CE019DDFF7
S113049083EF91E00197F1F700C00000DF91CF9165
S11304A00895C3DF089561E090DF83EF91E0019741
S11304B0F1F700C000000895CF93DF9300D0CDB7CB
S11304C0DEB7198220E42A83E1E0F0E0EC0FFD1F9F
S11304D0E40FF11D2081620F606877DF0F900F90A9
S11304E0DF91CF910895EF92FF920F931F93CF93D3
S11304F08C017B01D8DF40E060E0C801DDDFC0E0B3
S1130500F701EC0FF11D6081662331F0C03120F456
S1130510CF5FC80173DFF4CF662381F041E060E070
S1130520C801CADFF701EC0FF11D6081662331F0C9
S1130530C03220F4CF5FC80161DFF4CFCF911F91A7
S11305400F91FF90EF900895FC01718360830895EB
S11305500F931F93CF93DF93EC018881998183D00C
S113056066E488819981E0D060E188819981DCD05A
S1130570888199818FD083EC99E00197F1F700C0CD
S11305800000888199816FD066E488819981CCD0FC
S113059062E488819981C8D0888199817BD08881DF
S11305A0998161D066E488819981BED065E68881AD
S11305B09981BAD0888199816DD08881998153D0ED
S11305C066E488819981B0D060E188819981ACD05A
S11305D0888199815FD087EA91E60197F1F700C09D
S11305E00000888199813FD067E4888199819CD0FB
S11305F088819981F7D0182F8881998162D0888168
S11306009981F0D0082F8881998176D08881998149
S113061041D0612F70E0762F6627600F711D80E056
S113062090E021D42AE939E949E95FE383D3DF91F2
S1130630CF911F910F910895CF93DF93EC01CB01DC
S1130640798368835B834A8361E027D261E08A818E
S11306509B8123D28881998180D28A819B817DD29A
S1130660DF91CF910895CF93DF93EC018A819B8131
S113067074D2888199819DD283E08A95F1F7000034
S11306808A819B8196D283E08A95F1F70000DF91FD
S1130690CF910895CF93DF93EC018881998189D21A
S11306A08A819B815AD283E08A95F1F70000888180
S11306B0998153D283E08A95F1F70000DF91CF91BD
S11306C00895CF93DF93EC018881998172D200C0A1
S11306D000C000008A819B816CD200C000C0000071
S11306E08A819B813AD200C000C000008A819B812C
S11306F060D2DF91CF910895CF93DF93EC0188818D
S113070099812BD28A819B8154D200C000C0000001
S11307108A819B8122D200C000C000008A819B8113
S113072048D2DF91CF910895FF920F931F93CF93F7
S1130730DF938C01F62ED0E0C0E8D83040F58C2F42
S11307408F2129F0F8018081918107D204C0F8013A
S1130750808191812ED2F801828193812AD200C0B6
S113076000C00000F80182819381F7D100C000C06D
S11307700000F801828193811CD200C000C00000F7
S11307808C2F90E095958795C82FDF5FD6CF60E0DA
S1130790F8018081918181D1F8018281938109D20C
S11307A000C000C00000F80182819381D6D100C04E
S11307B000C00000F801808191812AD2C82FF8017D
S11307C082819381F6D100C000C0000061E0F8018D
S11307D08081918162D18C2FDF91CF911F910F91F4
S11307E0FF9008950F931F93CF93DF93EC0160E084
S11307F08881998152D100E010E00730C8F48A81E1
S11308009B81D7D100C000C000008A819B81A5D103
S113081000C000C0000088819981FAD1182B8A8118
S11308209B81C7D100C000C00000110F0F5FE5CF4E
S11308308A819B81BED100C000C000008A819B8157
S11308408CD100C000C0000088819981E1D1182BAF
S11308508A819B81AED100C000C0000061E0888124
S113086099811BD1812FDF91CF911F910F91089511
S113087010BC89E189B988E18AB98EE880BD089500
S11308805D9BFECF8CB908950F931F93CF93DF9395
S11308908C01C0E0D0E0F801EC0FFD1F80818823BB
S11308A019F0EEDF2196F7CFDF91CF911F910F91D1
S11308B00895CF93DF93CDB7DEB7CF57D1090FB6E5
S11308C0F894DEBF0FBECDBF21E046E062E0CE016A
S11308D001963DD121E047E062E0CE01049637D194
S11308E0AE014F5F5F4FBE016C5F7F4FCE01079635
S11308F0A3DEBE01695F7F4FCE010B9625DEBE01EC
S1130900695F7F4FCE010D96F7DBCE010F9694D031
S113091047E2BE01695F7F4FCE0141962EDDCE01D5
S11309204196BFDDA5DFAE0148585F4FBE01645854
S11309307F4FCE010D96E4DBCE010B9609DE2B0131
S11309403C01CE010F9698D04B015C0120E030E0D1
S113095040E251E4C458DF4F688179818A819B81E8
S1130960CC57D0400ED34ED28B0120E030E040E291
S113097051E4EC966CAD7DAD8EAD9FADEC9701D39B
S113098041D27B0120E030E040E251E4C301B201F6
S1130990F8D238D26B0120E030E040E251E4C501E6
S11309A0B401EFD22FD22AE030E0CB01B901B1D4A7
S11309B0B62EA72E982E892EC601B901AAD4D62EFA
S11309C0C72E782E692EC701B901A3D4462FE72F6D
S11309D0F82FF92EC801B9019CD48F929F92AF923F
S11309E0BF926F927F92CF92DF92FF92FF93EF9329
S11309F04F939F938F937F936F9380E690E09F93A1
S1130A008F938E010C5E1F4F1F930F93A9D4C801BF
S1130A103BDFB801CE01419666DD2FE38DE093E024
S1130A20215080409040E1F700C000000FB6F894D8
S1130A30DEBF0FBECDBF77CF089565E087E048DB0A
S1130A40BC01990F880B990B10D29B01AC0160E09B
S1130A5070EC8FE794E46ED120E030E040EA50E49B
S1130A6090D220E030E040E85FE3FFD020E030E0C7
S1130A7040E251E486D20895E0DF2FE832E449E908
S1130A8052E458D12EED37E341E350ECDDD222E4B9
S1130A9034E349EE52E475D20895FC016183808108
S1130AA08130F9F018F08230B9F1089561110DC068
S1130AB027B381E090E0028002C0880F991F0A9456
S1130AC0E2F78095822387BB089527B381E090E005
S1130AD0028002C0880F991F0A94E2F7822B87BB19
S1130AE0089561110DC024B381E090E0028002C03A
S1130AF0880F991F0A94E2F78095822384BB089596
S1130B0024B381E090E0028002C0880F991F0A9408
S1130B10E2F7822B84BB089561110DC021B381E0FB
S1130B2090E0028002C0880F991F0A94E2F7809532
S1130B30822381BB089521B381E090E0028002C04A
S1130B40880F991F0A94E2F7822B81BB0895FC0158
S1130B5060834283622FA1DF0895FC01908191306C
S1130B6081F018F09230C9F0089528B381E090E044
S1130B70028002C0880F991F0A94E2F7822B88BB77
S1130B80089525B381E090E0028002C0880F991F88
S1130B900A94E2F7822B85BB089522B381E090E0AA
S1130BA0028002C0880F991F0A94E2F7822B82BB4D
S1130BB00895FC019081913089F018F09230D9F0B9
S1130BC0089528B381E090E0028002C0880F991F45
S1130BD00A94E2F78095822388BB089525B381E0C7
S1130BE090E0028002C0880F991F0A94E2F7809572
S1130BF0822385BB089522B381E090E0028002C085
S1130C00880F991F0A94E2F78095822382BB089586
S1130C10FC019081913081F018F09230C9F023C02A
S1130C2026B330E0C901028002C0959587950A94E5
S1130C30E2F7282F217017C023B330E0C9010280E6
S1130C4002C0959587950A94E2F7282F21700BC06E
S1130C5020B330E0C901028002C0959587950A94BB
S1130C60E2F7282F2170822F08955058BB27AA2716
S1130C700ED04DC13ED130F043D120F031F49F3F2E
S1130C8011F41EF433C10EF4E095E7FB29C1E92FFA
S1130C904FD180F3BA17620773078407950718F0DA
S1130CA071F49EF567C10EF4E0950B2EBA2FA02DBA
S1130CB00B01B90190010C01CA01A0011124FF2705
S1130CC0591B99F0593F50F4503E68F11A16F04000
S1130CD0A22F232F342F4427585FF3CF46953795FF
S1130CE02795A795F0405395C9F77EF41F16BA0BC4
S1130CF0620B730B840BBAF09150A1F0FF0FBB1F72
S1130D00661F771F881FC2F70EC0BA0F621F731FBA
S1130D10841F48F4879577956795B795F7959E3F17
S1130D2008F0B3CF9395880F08F09927EE0F9795A5
S1130D30879508950CD0EBC0E3D040F0DAD030F0C2
S1130D4021F45F3F19F0CCC0511115C1CFC0F0D0D0
S1130D5098F39923C9F35523B1F3951B550BBB277E
S1130D60AA2762177307840738F09F5F5F4F220F2B
S1130D70331F441FAA1FA9F333D00E2E3AF0E0E824
S1130D8030D091505040E695001CCAF729D0FE2F70
S1130D9027D0660F771F881FBB1F26173707480702
S1130DA0AB07B0E809F0BB0B802DBF01FF279358B8
S1130DB05F4F2AF09E3F510568F092C0DCC05F3F50
S1130DC0ECF3983EDCF3869577956795B795F795A0
S1130DD09F5FC9F7880F911D9695879597F9089598
S1130DE0E1E0660F771F881FBB1F62177307840734
S1130DF0BA0720F0621B730B840BBA0BEE1F88F743
S1130E00E095089504D06894B111B5C0089598D0C0
S1130E1088F09F5790F0B92F9927B751A0F0D1F0DF
S1130E20660F771F881F991F1AF0BA95C9F712C069
S1130E30B13081F09FD0B1E008959CC0672F782F26
S1130E408827B85F39F0B93FCCF3869577956795D5
S1130E50B395D9F73EF490958095709561957F4F41
S1130E608F4F9F4F0895E89409C097FB3EF49095E7
S1130E708095709561957F4F8F4F9F4F9923A9F06F
S1130E80F92F96E9BB279395F695879577956795FE
S1130E90B795F111F8CFFAF4BB0F11F460FF1BC042
S1130EA06F5F7F4F8F4F9F4F16C0882311F096E9D5
S1130EB011C0772321F09EE8872F762F05C0662383
S1130EC071F096E8862F70E060E02AF09A95660F3C
S1130ED0771F881FDAF7880F9695879597F90895F5
S1130EE097F99F6780E870E060E008959FEF80ECD9
S1130EF0089500240A94161617061806090608957C
S1130F0000240A9412161306140605060895092EE1
S1130F100394000C11F4882352F0BB0F40F4BF2B50
S1130F2011F460FF04C06F5F7F4F8F4F9F4F089590
S1130F3057FD9058440F551F59F05F3F71F0479586
S1130F40880F97FB991F61F09F3F79F0879508956B
S1130F50121613061406551FF2CF4695F1DF08C08A
S1130F60161617061806991FF1CF869571056105A7
S1130F7008940895E894BB2766277727CB0197F94F
S1130F8008950BD0C4CFB5DF28F0BADF18F095234D
S1130F9009F0A6CFABCF1124EECFCADFA0F3959F03
S1130FA0D1F3950F50E0551F629FF001729FBB274C
S1130FB0F00DB11D639FAA27F00DB11DAA1F649FF8
S1130FC06627B00DA11D661F829F2227B00DA11DAB
S1130FD0621F739FB00DA11D621F839FA00D611D31
S1130FE0221F749F3327A00D611D231F849F600D52
S1130FF0211D822F762F6A2F11249F5750408AF08B
S1131000E1F088234AF0EE0FFF1FBB1F661F771F16
S1131010881F91505040A9F79E3F510570F060CF52
S1131020AACF5F3FECF3983EDCF3869577956795FE
S1131030B795F795E7959F5FC1F7FE2B880F911D34
S11310409695879597F90895FA01EE0FFF1F30964C
S11310502105310599F16115710561F48038BFE30B
S11310609B0749F168949038810561F08038BFEF9F
S11310709B0741F0992342F5FF3FE1053105210526
S113108011F1E8940894E795D901AA2329F4AB2F28
S1131090BE2FF85FD0F310C0FF5F70F4A695E0F7A1
S11310A0F73950F019F0FF3A38F49F779F930CD03A
S11310B00F9007FC905808953EF018CF60E070E060
S11310C080E89FE308954FE79F775F934F933F93A3
S11310D02F939ED02F913F914F915F9152DF05C086
S11310E019F40EF0FDCE46CF01CF2ADFC8F39638AF
S11310F0C0F707F80F92E8942BE33AEA48EB5FE76E
S11311004EDF0F920F920F924DB75EB70F92C0D081
S1131110E6E2F0E016D04F915F91EF91FF91E595F3
S1131120EE1FFF1F49F0FE57E0684427EE0F441FEF
S1131130FA95E1F74195550B32D00F9007FE26C082
S11311400895DF93CF931F930F93FF92EF92DF9253
S11311507B018C01689405C0DA2EEF011EDFFE01CD
S1131160E894A5912591359145915591AEF3EF0100
S11311708EDDFE019701A801DA9479F7DF90EF90F4
S1131180FF900F911F91CF91DF9108959B01AC01C6
S113119060E070E080E89FE3CDCDA2CEACC0D0DEAD
S11311A0E8F39923D9F3940F511DBBF391505040A8
S11311B094F059F0882332F0660F771F881F9150FE
S11311C05040C1F79E3F510544F7880F911D9695F5
S11311D0879597F908955F3FACF0983E9CF0BB2744
S11311E0869577956795B79508F4B1609395C1F79F
S11311F0BB0F58F711F460FFE8CF6F5F7F4F8F4F3D
S11312009F4FE3CFB8CE0EF076C070CE689468CE10
S113121097DEC8F39923D1F3C6F3DF93CF931F93DB
S11312200F93FF92C92FDD2788232AF02197660F99
S1131230771F881FDAF720E030E040E85FEB9FE398
S1131240883920F0803E30F021968F770FDDEEE470
S1131250F0E003C00BDDEBE7F0E073DF8B01BE01D0
S1131260EC01FB2E6F5771097595771F880B990B4D
S1131270FCDD28E132E741E35FE38FDEAF2D980127
S1131280AE01FF900F911F91CF91DF9100DD3FCE12
S1131290FA01DC01AA0FBB1F9B01AC01BF5728F464
S11312A022273327442750781FC0B75188F4AB2F27
S11312B00024469537952795011CA395D2F3002069
S11312C069F0220F331F441FB395DAF30DD0CDCC50
S11312D061307105A0E88A07B94630F49B01AC017E
S11312E06627772788279078309621F020833183EA
S11312F04283538308959F3F31F0915020F48795A2
S113130077956795B795880F911D9695879597F969
S1131310089597FB072E16F4009406D077FD08D0A5
S11313200BD007FC05D03EF4909581959F4F08950E
S1131330709561957F4F0895AA1BBB1B51E107C0AF
S1131340AA1FBB1FA617B70710F0A61BB70B881F51
S1131350991F5A95A9F780959095BC01CD010895E0
S1131360AEE0B0E0E5EBF9E0AAC20D891E8986E0A3
S11313708C831A8309838FEF9FE79E838D83AE014D
S1131380475E5F4F6F89788DCE01019608D0EF815B
S1131390F885E00FF11F10822E96E4E0ACC2ABE0BA
S11313A0B0E0E4EDF9E07DC26C017B018A01FC014F
S11313B017821682838181FFBFC1CE0101963C0151
S11313C0F6019381F70193FD859193FF81917F014C
S11313D0882309F4ADC1853239F493FD859193FFD7
S11313E081917F01853221F4B60190E0C0D1E8CF2C
S11313F0912C212C312CFFE1F315D8F08B3279F0AC
S113140038F4803279F08332A1F4232D20611DC099
S11314108D3261F0803369F4232D216016C0832D51
S11314208260382EE32DE4603E2E2AC0F32DF8604E
S11314301DC037FC2DC020ED280F2A3040F08E321D
S1131440B9F436FC75C1232D2064322E19C036FE42
S113145006C08AE0989E200D1124922E11C0EAE065
S11314602E9E200D1124222EF32DF0623F2E08C053
S11314708C3621F4832D8068382E02C0883641F4DE
S1131480F70193FD859193FF81917F018111B3CF82
S1131490982F9F7D9554933028F40C5F1F4F9FE342
S11314A099830DC0833631F0833771F0833509F0A9
S11314B055C020C0F801808189830E5F1F4F8824A6
S11314C08394912C530112C02801F2E04F0E511C59
S11314D0F801A080B18036FE03C0692D70E002C01F
S11314E06FEF7FEFC50138D14C018201F32DFF77F7
S11314F03F2E15C0280122E0420E511CF801A080A5
S1131500B18036FE03C0692D70E002C06FEF7FEF3B
S1131510C50117D14C01F32DF0683F2E820133FC35
S113152019C0822D90E088169906A0F4B60180E2D5
S113153090E01DD12A94F5CFF50137FC859137FE53
S113154081915F01B60190E012D121102A9421E02B
S1131550821A91088114910479F7E1C0843611F05C
S1131560893639F5F80137FE07C0608171818281BF
S113157093810C5F1F4F08C060817181072E000C9E
S1131580880B990B0E5F1F4FF32DFF763F2E97FFAD
S113159009C090958095709561957F4F8F4F9F4FAF
S11315A0F0683F2E2AE030E0A3011DD1882E861872
S11315B044C0853731F4232D2F7EB22E2AE030E04B
S11315C025C0932D997FB92E8F36C1F018F4883534
S11315D079F0AEC0803719F0883721F0A9C0E92F1F
S11315E0E061BE2EB4FE0DC0FB2DF460BF2E09C019
S11315F034FE0AC0292F2660B22E06C028E030E04F
S113160005C020E130E002C020E132E0F801B7FE7D
S113161007C060817181828193810C5F1F4F06C076
S11316206081718180E090E00E5F1F4FA301DBD0E9
S1131630882E8618FB2DFF773F2E36FE0DC0232DF6
S11316402E7FA22E891458F434FE0BC032FC09C03C
S1131650832D8E7EA82E05C0B82CA32C03C0B82CD5
S113166001C0B92CA4FE0FC0FE01E80DF11D80815C
S1131670803321F49A2D997EA92E09C0A2FE06C0BA
S1131680B394B39404C08A2D867809F0B394A3FC70
S113169010C0A0FE06C0B21480F4280C922C9B1833
S11316A00DC0B21458F4B60180E290E060D0B39457
S11316B0F8CFB21418F42B1802C0982C212CA4FED5
S11316C00FC0B60180E390E052D0A2FE16C0A1FC88
S11316D003C088E790E002C088E590E0B6010CC042
S11316E08A2D867851F0A1FE02C08BE201C080E20F
S11316F0A7FC8DE2B60190E03AD0891430F4B6012B
S113170080E390E034D09A94F8CF8A94F301E80D02
S1131710F11D8081B60190E02AD08110F6CF2220FD
S113172009F44ECEB60180E290E021D02A94F7CF9E
S1131730F6018681978102C08FEF9FEF2B96E2E13D
S1131740CCC0FC010590615070400110D8F7809521
S113175090958E0F9F1F0895FC0161507040019079
S11317600110D8F7809590958E0F9F1F08950F93C1
S11317701F93CF93DF93FB01238121FD03C08FEFE0
S11317809FEF2CC022FF16C04681578124813581EA
S11317904217530744F4A081B1819D012F5F3F4F4D
S11317A0318320838C93268137812F5F3F4F37838A
S11317B0268314C08B01EC01FB010084F185E02D2C
S11317C00995892BE1F6D80116968D919C9117976E
S11317D0019617969C938E931697CE01DF91CF9125
S11317E01F910F910895FA01AA27283051F1203151
S11317F081F1E8946F936E7F6E5F7F4F8F4F9F4FA1
S1131800AF4FB1E03ED0B4E03CD0670F781F891FE2
S11318109A1FA11D680F791F8A1F911DA11D6A0FB0
S1131820711D811D911DA11D20D009F468943F9163
S11318302AE0269F11243019305D3193DEF6CF0162
S11318400895462F4770405D4193B3E00FD0C9F728
S1131850F6CF462F4F70405D4A3318F0495D31FD95
S11318604052419302D0A9F7EACFB4E0A6959795E8
S1131870879577956795BA95C9F7009761057105BE
S113188008959B01AC010A2E069457954795379508
S11318902795BA95C9F7620F731F841F951FA01D62
S11318A008952F923F924F925F926F927F928F9200
S11318B09F92AF92BF92CF92DF92EF92FF920F93DB
S11318C01F93CF93DF93CDB7DEB7CA1BDB0B0FB6E5
S11318D0F894DEBF0FBECDBF09942A8839884888A2
S11318E05F846E847D848C849B84AA84B984C88438
S11318F0DF80EE80FD800C811B81AA81B981CE0F2F
S1131900D11D0FB6F894DEBF0FBECDBFED01089513
S1071910F894FFCF75
S1131914543A25642E2564432C483A25642E2564C0
S113192425254C493A25642E25642C50504D3A25DE
S10B1934642E25640D0A000075
S9030000FC
